{
  "_format": "hh-sol-artifact-1",
  "contractName": "TokenWithZK",
  "sourceName": "contracts/TokenWithZK.sol",
  "abi": [
    {
      "inputs": [
        {
          "internalType": "uint256",
          "name": "initialSupply",
          "type": "uint256"
        },
        {
          "internalType": "uint256",
          "name": "capValue",
          "type": "uint256"
        },
        {
          "internalType": "address",
          "name": "initialOwner",
          "type": "address"
        },
        {
          "internalType": "address",
          "name": "verifierAddress",
          "type": "address"
        }
      ],
      "stateMutability": "nonpayable",
      "type": "constructor"
    },
    {
      "inputs": [
        {
          "internalType": "address",
          "name": "spender",
          "type": "address"
        },
        {
          "internalType": "uint256",
          "name": "allowance",
          "type": "uint256"
        },
        {
          "internalType": "uint256",
          "name": "needed",
          "type": "uint256"
        }
      ],
      "name": "ERC20InsufficientAllowance",
      "type": "error"
    },
    {
      "inputs": [
        {
          "internalType": "address",
          "name": "sender",
          "type": "address"
        },
        {
          "internalType": "uint256",
          "name": "balance",
          "type": "uint256"
        },
        {
          "internalType": "uint256",
          "name": "needed",
          "type": "uint256"
        }
      ],
      "name": "ERC20InsufficientBalance",
      "type": "error"
    },
    {
      "inputs": [
        {
          "internalType": "address",
          "name": "approver",
          "type": "address"
        }
      ],
      "name": "ERC20InvalidApprover",
      "type": "error"
    },
    {
      "inputs": [
        {
          "internalType": "address",
          "name": "receiver",
          "type": "address"
        }
      ],
      "name": "ERC20InvalidReceiver",
      "type": "error"
    },
    {
      "inputs": [
        {
          "internalType": "address",
          "name": "sender",
          "type": "address"
        }
      ],
      "name": "ERC20InvalidSender",
      "type": "error"
    },
    {
      "inputs": [
        {
          "internalType": "address",
          "name": "spender",
          "type": "address"
        }
      ],
      "name": "ERC20InvalidSpender",
      "type": "error"
    },
    {
      "inputs": [
        {
          "internalType": "address",
          "name": "owner",
          "type": "address"
        }
      ],
      "name": "OwnableInvalidOwner",
      "type": "error"
    },
    {
      "inputs": [
        {
          "internalType": "address",
          "name": "account",
          "type": "address"
        }
      ],
      "name": "OwnableUnauthorizedAccount",
      "type": "error"
    },
    {
      "anonymous": false,
      "inputs": [
        {
          "indexed": true,
          "internalType": "address",
          "name": "owner",
          "type": "address"
        },
        {
          "indexed": true,
          "internalType": "address",
          "name": "spender",
          "type": "address"
        },
        {
          "indexed": false,
          "internalType": "uint256",
          "name": "value",
          "type": "uint256"
        }
      ],
      "name": "Approval",
      "type": "event"
    },
    {
      "anonymous": false,
      "inputs": [
        {
          "indexed": true,
          "internalType": "address",
          "name": "previousOwner",
          "type": "address"
        },
        {
          "indexed": true,
          "internalType": "address",
          "name": "newOwner",
          "type": "address"
        }
      ],
      "name": "OwnershipTransferred",
      "type": "event"
    },
    {
      "anonymous": false,
      "inputs": [
        {
          "indexed": false,
          "internalType": "bool",
          "name": "success",
          "type": "bool"
        }
      ],
      "name": "ProofVerified",
      "type": "event"
    },
    {
      "anonymous": false,
      "inputs": [
        {
          "indexed": true,
          "internalType": "uint256",
          "name": "state",
          "type": "uint256"
        }
      ],
      "name": "StateVerified",
      "type": "event"
    },
    {
      "anonymous": false,
      "inputs": [
        {
          "indexed": true,
          "internalType": "address",
          "name": "from",
          "type": "address"
        },
        {
          "indexed": true,
          "internalType": "address",
          "name": "to",
          "type": "address"
        },
        {
          "indexed": false,
          "internalType": "uint256",
          "name": "value",
          "type": "uint256"
        }
      ],
      "name": "Transfer",
      "type": "event"
    },
    {
      "inputs": [
        {
          "internalType": "address",
          "name": "owner",
          "type": "address"
        },
        {
          "internalType": "address",
          "name": "spender",
          "type": "address"
        }
      ],
      "name": "allowance",
      "outputs": [
        {
          "internalType": "uint256",
          "name": "",
          "type": "uint256"
        }
      ],
      "stateMutability": "view",
      "type": "function"
    },
    {
      "inputs": [
        {
          "internalType": "address",
          "name": "spender",
          "type": "address"
        },
        {
          "internalType": "uint256",
          "name": "value",
          "type": "uint256"
        }
      ],
      "name": "approve",
      "outputs": [
        {
          "internalType": "bool",
          "name": "",
          "type": "bool"
        }
      ],
      "stateMutability": "nonpayable",
      "type": "function"
    },
    {
      "inputs": [
        {
          "internalType": "address",
          "name": "account",
          "type": "address"
        }
      ],
      "name": "balanceOf",
      "outputs": [
        {
          "internalType": "uint256",
          "name": "",
          "type": "uint256"
        }
      ],
      "stateMutability": "view",
      "type": "function"
    },
    {
      "inputs": [
        {
          "internalType": "uint256",
          "name": "amount",
          "type": "uint256"
        }
      ],
      "name": "burn",
      "outputs": [],
      "stateMutability": "nonpayable",
      "type": "function"
    },
    {
      "inputs": [],
      "name": "cap",
      "outputs": [
        {
          "internalType": "uint256",
          "name": "",
          "type": "uint256"
        }
      ],
      "stateMutability": "view",
      "type": "function"
    },
    {
      "inputs": [],
      "name": "decimals",
      "outputs": [
        {
          "internalType": "uint8",
          "name": "",
          "type": "uint8"
        }
      ],
      "stateMutability": "view",
      "type": "function"
    },
    {
      "inputs": [
        {
          "internalType": "uint256",
          "name": "state",
          "type": "uint256"
        }
      ],
      "name": "isStateVerified",
      "outputs": [
        {
          "internalType": "bool",
          "name": "",
          "type": "bool"
        }
      ],
      "stateMutability": "view",
      "type": "function"
    },
    {
      "inputs": [
        {
          "internalType": "address",
          "name": "to",
          "type": "address"
        },
        {
          "internalType": "uint256",
          "name": "amount",
          "type": "uint256"
        }
      ],
      "name": "mint",
      "outputs": [],
      "stateMutability": "nonpayable",
      "type": "function"
    },
    {
      "inputs": [],
      "name": "name",
      "outputs": [
        {
          "internalType": "string",
          "name": "",
          "type": "string"
        }
      ],
      "stateMutability": "view",
      "type": "function"
    },
    {
      "inputs": [],
      "name": "owner",
      "outputs": [
        {
          "internalType": "address",
          "name": "",
          "type": "address"
        }
      ],
      "stateMutability": "view",
      "type": "function"
    },
    {
      "inputs": [],
      "name": "pause",
      "outputs": [],
      "stateMutability": "nonpayable",
      "type": "function"
    },
    {
      "inputs": [],
      "name": "renounceOwnership",
      "outputs": [],
      "stateMutability": "nonpayable",
      "type": "function"
    },
    {
      "inputs": [],
      "name": "symbol",
      "outputs": [
        {
          "internalType": "string",
          "name": "",
          "type": "string"
        }
      ],
      "stateMutability": "view",
      "type": "function"
    },
    {
      "inputs": [],
      "name": "totalSupply",
      "outputs": [
        {
          "internalType": "uint256",
          "name": "",
          "type": "uint256"
        }
      ],
      "stateMutability": "view",
      "type": "function"
    },
    {
      "inputs": [
        {
          "internalType": "address",
          "name": "to",
          "type": "address"
        },
        {
          "internalType": "uint256",
          "name": "amount",
          "type": "uint256"
        }
      ],
      "name": "transfer",
      "outputs": [
        {
          "internalType": "bool",
          "name": "",
          "type": "bool"
        }
      ],
      "stateMutability": "nonpayable",
      "type": "function"
    },
    {
      "inputs": [
        {
          "internalType": "address",
          "name": "from",
          "type": "address"
        },
        {
          "internalType": "address",
          "name": "to",
          "type": "address"
        },
        {
          "internalType": "uint256",
          "name": "amount",
          "type": "uint256"
        }
      ],
      "name": "transferFrom",
      "outputs": [
        {
          "internalType": "bool",
          "name": "",
          "type": "bool"
        }
      ],
      "stateMutability": "nonpayable",
      "type": "function"
    },
    {
      "inputs": [
        {
          "internalType": "address",
          "name": "newOwner",
          "type": "address"
        }
      ],
      "name": "transferOwnership",
      "outputs": [],
      "stateMutability": "nonpayable",
      "type": "function"
    },
    {
      "inputs": [],
      "name": "unpause",
      "outputs": [],
      "stateMutability": "nonpayable",
      "type": "function"
    },
    {
      "inputs": [
        {
          "internalType": "uint256",
          "name": "",
          "type": "uint256"
        }
      ],
      "name": "verifiedStates",
      "outputs": [
        {
          "internalType": "bool",
          "name": "",
          "type": "bool"
        }
      ],
      "stateMutability": "view",
      "type": "function"
    },
    {
      "inputs": [],
      "name": "verifier",
      "outputs": [
        {
          "internalType": "contract Groth16Verifier",
          "name": "",
          "type": "address"
        }
      ],
      "stateMutability": "view",
      "type": "function"
    },
    {
      "inputs": [
        {
          "internalType": "uint256[2]",
          "name": "a",
          "type": "uint256[2]"
        },
        {
          "internalType": "uint256[2][2]",
          "name": "b",
          "type": "uint256[2][2]"
        },
        {
          "internalType": "uint256[2]",
          "name": "c",
          "type": "uint256[2]"
        },
        {
          "internalType": "uint256[1]",
          "name": "input",
          "type": "uint256[1]"
        }
      ],
      "name": "verifyState",
      "outputs": [
        {
          "internalType": "bool",
          "name": "",
          "type": "bool"
        }
      ],
      "stateMutability": "nonpayable",
      "type": "function"
    }
  ],
  "bytecode": "0x60a06040523480156200001157600080fd5b506040516200156938038062001569833981016040819052620000349162000378565b81604051806040016040528060058152602001642a37b5b2b760d91b815250604051806040016040528060038152602001622a25a760e91b815250816003908162000080919062000468565b5060046200008f828262000468565b5050506001600160a01b038116620000c257604051631e4fbdf760e01b8152600060048201526024015b60405180910390fd5b620000cd8162000198565b50600083116200010b5760405162461bcd60e51b8152602060048201526008602482015267043617020697320360c41b6044820152606401620000b9565b828411156200015d5760405162461bcd60e51b815260206004820152601a60248201527f496e697469616c20737570706c792065786365656473206361700000000000006044820152606401620000b9565b60808390526200016e3385620001ea565b600680546001600160a01b0319166001600160a01b0392909216919091179055506200055c915050565b600580546001600160a01b038381166001600160a01b0319831681179093556040519116919082907f8be0079c531659141344cd1fd0a4f28419497f9722a3daafe3b4186f6b6457e090600090a35050565b6001600160a01b038216620002165760405163ec442f0560e01b815260006004820152602401620000b9565b620002246000838362000228565b5050565b6001600160a01b038316620002575780600260008282546200024b919062000534565b90915550620002cb9050565b6001600160a01b03831660009081526020819052604090205481811015620002ac5760405163391434e360e21b81526001600160a01b03851660048201526024810182905260448101839052606401620000b9565b6001600160a01b03841660009081526020819052604090209082900390555b6001600160a01b038216620002e95760028054829003905562000308565b6001600160a01b03821660009081526020819052604090208054820190555b816001600160a01b0316836001600160a01b03167fddf252ad1be2c89b69c2b068fc378daa952ba7f163c4a11628f55a4df523b3ef836040516200034e91815260200190565b60405180910390a3505050565b80516001600160a01b03811681146200037357600080fd5b919050565b600080600080608085870312156200038f57600080fd5b8451935060208501519250620003a8604086016200035b565b9150620003b8606086016200035b565b905092959194509250565b634e487b7160e01b600052604160045260246000fd5b600181811c90821680620003ee57607f821691505b6020821081036200040f57634e487b7160e01b600052602260045260246000fd5b50919050565b601f8211156200046357600081815260208120601f850160051c810160208610156200043e5750805b601f850160051c820191505b818110156200045f578281556001016200044a565b5050505b505050565b81516001600160401b03811115620004845762000484620003c3565b6200049c81620004958454620003d9565b8462000415565b602080601f831160018114620004d45760008415620004bb5750858301515b600019600386901b1c1916600185901b1785556200045f565b600085815260208120601f198616915b828110156200050557888601518255948401946001909101908401620004e4565b5085821015620005245787850151600019600388901b60f8161c191681555b5050505050600190811b01905550565b808201808211156200055657634e487b7160e01b600052601160045260246000fd5b92915050565b608051610fea6200057f6000396000818161021001526104c70152610fea6000f3fe608060405234801561001057600080fd5b50600436106101375760003560e01c806340c10f19116100b85780638da5cb5b1161007c5780638da5cb5b1461029d57806395d89b41146102ae578063a9059cbb146102b6578063dd62ed3e146102c9578063e2ae010914610302578063f2fde38b1461031557600080fd5b806340c10f191461023e57806342966c681461025157806370a0823114610264578063715018a61461028d5780638456cb591461029557600080fd5b80632b7ac3f3116100ff5780632b7ac3f3146101c15780632fb94238146101ec578063313ce567146101ff578063355274ea1461020e5780633f4ba83a1461023457600080fd5b806304c086e71461013c57806306fdde0314610174578063095ea7b31461018957806318160ddd1461019c57806323b872dd146101ae575b600080fd5b61015f61014a366004610bc9565b60076020526000908152604090205460ff1681565b60405190151581526020015b60405180910390f35b61017c610328565b60405161016b9190610be2565b61015f610197366004610c4c565b6103ba565b6002545b60405190815260200161016b565b61015f6101bc366004610c76565b6103d4565b6006546101d4906001600160a01b031681565b6040516001600160a01b03909116815260200161016b565b61015f6101fa366004610bc9565b610449565b6040516012815260200161016b565b7f00000000000000000000000000000000000000000000000000000000000000006101a0565b61023c6104a6565b005b61023c61024c366004610c4c565b6104bd565b61023c61025f366004610bc9565b610545565b6101a0610272366004610cb2565b6001600160a01b031660009081526020819052604090205490565b61023c61055a565b61023c61056e565b6005546001600160a01b03166101d4565b61017c61058b565b61015f6102c4366004610c4c565b61059a565b6101a06102d7366004610ccd565b6001600160a01b03918216600090815260016020908152604080832093909416825291909152205490565b61015f610310366004610db2565b610608565b61023c610323366004610cb2565b61078c565b60606003805461033790610e90565b80601f016020809104026020016040519081016040528092919081815260200182805461036390610e90565b80156103b05780601f10610385576101008083540402835291602001916103b0565b820191906000526020600020905b81548152906001019060200180831161039357829003601f168201915b5050505050905090565b6000336103c88185856107c7565b60019150505b92915050565b600654600090600160a01b900460ff16156104365760405162461bcd60e51b815260206004820152601b60248201527f546f6b656e207472616e73666572207768696c6520706175736564000000000060448201526064015b60405180910390fd5b6104418484846107d9565b949350505050565b60008082116104905760405162461bcd60e51b8152602060048201526013602482015272496e76616c69642073746174652076616c756560681b604482015260640161042d565b5060009081526007602052604090205460ff1690565b6104ae6107fd565b6006805460ff60a01b19169055565b6104c56107fd565b7f0000000000000000000000000000000000000000000000000000000000000000816104f060025490565b6104fa9190610eca565b11156105375760405162461bcd60e51b815260206004820152600c60248201526b10d85c08195e18d95959195960a21b604482015260640161042d565b610541828261082a565b5050565b61054d6107fd565b6105573382610860565b50565b6105626107fd565b61056c6000610896565b565b6105766107fd565b6006805460ff60a01b1916600160a01b179055565b60606004805461033790610e90565b600654600090600160a01b900460ff16156105f75760405162461bcd60e51b815260206004820152601b60248201527f546f6b656e207472616e73666572207768696c65207061757365640000000000604482015260640161042d565b61060183836108e8565b9392505050565b805160009061064f5760405162461bcd60e51b8152602060048201526013602482015272496e76616c696420696e70757420737461746560681b604482015260640161042d565b6006546040516343753b4d60e01b81526000916001600160a01b0316906343753b4d90610686908990899089908990600401610f0e565b602060405180830381865afa1580156106a3573d6000803e3d6000fd5b505050506040513d601f19601f820116820180604052508101906106c79190610f92565b9050806107065760405162461bcd60e51b815260206004820152600d60248201526c24b73b30b634b210383937b7b360991b604482015260640161042d565b60405181151581527ff4d358772b552280f9395158c37bc77ddcbcdeaf62b20aa01276fb89d7ea19239060200160405180910390a18251600090815260076020526040808220805460ff191660011790558451905190917fc0b32b2431d41b5c89076e0196e7dfecb88a46cac2cab8ec7c95b07c0ec879a391a250600195945050505050565b6107946107fd565b6001600160a01b0381166107be57604051631e4fbdf760e01b81526000600482015260240161042d565b61055781610896565b6107d483838360016108f6565b505050565b6000336107e78582856109cc565b6107f2858585610a44565b506001949350505050565b6005546001600160a01b0316331461056c5760405163118cdaa760e01b815233600482015260240161042d565b6001600160a01b0382166108545760405163ec442f0560e01b81526000600482015260240161042d565b61054160008383610a9f565b6001600160a01b03821661088a57604051634b637e8f60e11b81526000600482015260240161042d565b61054182600083610a9f565b600580546001600160a01b038381166001600160a01b0319831681179093556040519116919082907f8be0079c531659141344cd1fd0a4f28419497f9722a3daafe3b4186f6b6457e090600090a35050565b6000336103c8818585610a44565b6001600160a01b0384166109205760405163e602df0560e01b81526000600482015260240161042d565b6001600160a01b03831661094a57604051634a1406b160e11b81526000600482015260240161042d565b6001600160a01b03808516600090815260016020908152604080832093871683529290522082905580156109c657826001600160a01b0316846001600160a01b03167f8c5be1e5ebec7d5bd14f71427d1e84f3dd0314c0f7b2291e5b200ac8c7c3b925846040516109bd91815260200190565b60405180910390a35b50505050565b6001600160a01b0383811660009081526001602090815260408083209386168352929052205460001981146109c65781811015610a3557604051637dc7a0d960e11b81526001600160a01b0384166004820152602481018290526044810183905260640161042d565b6109c6848484840360006108f6565b6001600160a01b038316610a6e57604051634b637e8f60e11b81526000600482015260240161042d565b6001600160a01b038216610a985760405163ec442f0560e01b81526000600482015260240161042d565b6107d48383835b6001600160a01b038316610aca578060026000828254610abf9190610eca565b90915550610b3c9050565b6001600160a01b03831660009081526020819052604090205481811015610b1d5760405163391434e360e21b81526001600160a01b0385166004820152602481018290526044810183905260640161042d565b6001600160a01b03841660009081526020819052604090209082900390555b6001600160a01b038216610b5857600280548290039055610b77565b6001600160a01b03821660009081526020819052604090208054820190555b816001600160a01b0316836001600160a01b03167fddf252ad1be2c89b69c2b068fc378daa952ba7f163c4a11628f55a4df523b3ef83604051610bbc91815260200190565b60405180910390a3505050565b600060208284031215610bdb57600080fd5b5035919050565b600060208083528351808285015260005b81811015610c0f57858101830151858201604001528201610bf3565b506000604082860101526040601f19601f8301168501019250505092915050565b80356001600160a01b0381168114610c4757600080fd5b919050565b60008060408385031215610c5f57600080fd5b610c6883610c30565b946020939093013593505050565b600080600060608486031215610c8b57600080fd5b610c9484610c30565b9250610ca260208501610c30565b9150604084013590509250925092565b600060208284031215610cc457600080fd5b61060182610c30565b60008060408385031215610ce057600080fd5b610ce983610c30565b9150610cf760208401610c30565b90509250929050565b634e487b7160e01b600052604160045260246000fd5b6040805190810167ffffffffffffffff81118282101715610d3957610d39610d00565b60405290565b6040516020810167ffffffffffffffff81118282101715610d3957610d39610d00565b600082601f830112610d7357600080fd5b610d7b610d16565b806040840185811115610d8d57600080fd5b845b81811015610da7578035845260209384019301610d8f565b509095945050505050565b600080600080610120808688031215610dca57600080fd5b610dd48787610d62565b9450604087605f880112610de757600080fd5b610def610d16565b8060c089018a811115610e0157600080fd5b838a015b81811015610e2657610e178c82610d62565b84526020909301928401610e05565b50819750610e348b82610d62565b9650505050508661011f870112610e4a57600080fd5b610e52610d3f565b908601908088831115610e6457600080fd5b61010088015b83811015610e82578035835260209283019201610e6a565b509598949750929550505050565b600181811c90821680610ea457607f821691505b602082108103610ec457634e487b7160e01b600052602260045260246000fd5b50919050565b808201808211156103ce57634e487b7160e01b600052601160045260246000fd5b8060005b60028110156109c6578151845260209384019390910190600101610eef565b6101208101610f1d8287610eeb565b60408083018660005b6002811015610f4d57610f3a838351610eeb565b9183019160209190910190600101610f26565b50505050610f5e60c0830185610eeb565b61010082018360005b6001811015610f86578151835260209283019290910190600101610f67565b50505095945050505050565b600060208284031215610fa457600080fd5b8151801515811461060157600080fdfea264697066735822122000f8ae6f1716254ef8d4ee01e084678448df63d6c098e2e822c91f5af60ed52764736f6c63430008140033",
  "linkReferences": {},
  "deployedLinkReferences": {}
}