{
  "_format": "hh-sol-artifact-1",
  "contractName": "TokenWithZK",
  "sourceName": "contracts/TokenWithZK.sol",
  "abi": [
    {
      "inputs": [
        {
          "internalType": "uint256",
          "name": "initialSupply",
          "type": "uint256"
        },
        {
          "internalType": "uint256",
          "name": "capValue",
          "type": "uint256"
        },
        {
          "internalType": "address",
          "name": "initialOwner",
          "type": "address"
        },
        {
          "internalType": "address",
          "name": "verifierAddress",
          "type": "address"
        }
      ],
      "stateMutability": "nonpayable",
      "type": "constructor"
    },
    {
      "inputs": [
        {
          "internalType": "address",
          "name": "spender",
          "type": "address"
        },
        {
          "internalType": "uint256",
          "name": "allowance",
          "type": "uint256"
        },
        {
          "internalType": "uint256",
          "name": "needed",
          "type": "uint256"
        }
      ],
      "name": "ERC20InsufficientAllowance",
      "type": "error"
    },
    {
      "inputs": [
        {
          "internalType": "address",
          "name": "sender",
          "type": "address"
        },
        {
          "internalType": "uint256",
          "name": "balance",
          "type": "uint256"
        },
        {
          "internalType": "uint256",
          "name": "needed",
          "type": "uint256"
        }
      ],
      "name": "ERC20InsufficientBalance",
      "type": "error"
    },
    {
      "inputs": [
        {
          "internalType": "address",
          "name": "approver",
          "type": "address"
        }
      ],
      "name": "ERC20InvalidApprover",
      "type": "error"
    },
    {
      "inputs": [
        {
          "internalType": "address",
          "name": "receiver",
          "type": "address"
        }
      ],
      "name": "ERC20InvalidReceiver",
      "type": "error"
    },
    {
      "inputs": [
        {
          "internalType": "address",
          "name": "sender",
          "type": "address"
        }
      ],
      "name": "ERC20InvalidSender",
      "type": "error"
    },
    {
      "inputs": [
        {
          "internalType": "address",
          "name": "spender",
          "type": "address"
        }
      ],
      "name": "ERC20InvalidSpender",
      "type": "error"
    },
    {
      "inputs": [
        {
          "internalType": "address",
          "name": "owner",
          "type": "address"
        }
      ],
      "name": "OwnableInvalidOwner",
      "type": "error"
    },
    {
      "inputs": [
        {
          "internalType": "address",
          "name": "account",
          "type": "address"
        }
      ],
      "name": "OwnableUnauthorizedAccount",
      "type": "error"
    },
    {
      "anonymous": false,
      "inputs": [
        {
          "indexed": true,
          "internalType": "address",
          "name": "owner",
          "type": "address"
        },
        {
          "indexed": true,
          "internalType": "address",
          "name": "spender",
          "type": "address"
        },
        {
          "indexed": false,
          "internalType": "uint256",
          "name": "value",
          "type": "uint256"
        }
      ],
      "name": "Approval",
      "type": "event"
    },
    {
      "anonymous": false,
      "inputs": [
        {
          "indexed": false,
          "internalType": "string",
          "name": "message",
          "type": "string"
        },
        {
          "indexed": false,
          "internalType": "uint256",
          "name": "value",
          "type": "uint256"
        }
      ],
      "name": "Debug",
      "type": "event"
    },
    {
      "anonymous": false,
      "inputs": [
        {
          "indexed": true,
          "internalType": "address",
          "name": "previousOwner",
          "type": "address"
        },
        {
          "indexed": true,
          "internalType": "address",
          "name": "newOwner",
          "type": "address"
        }
      ],
      "name": "OwnershipTransferred",
      "type": "event"
    },
    {
      "anonymous": false,
      "inputs": [
        {
          "indexed": false,
          "internalType": "bool",
          "name": "success",
          "type": "bool"
        },
        {
          "indexed": true,
          "internalType": "uint256",
          "name": "state",
          "type": "uint256"
        }
      ],
      "name": "ProofVerified",
      "type": "event"
    },
    {
      "anonymous": false,
      "inputs": [
        {
          "indexed": true,
          "internalType": "uint256",
          "name": "state",
          "type": "uint256"
        },
        {
          "indexed": false,
          "internalType": "bool",
          "name": "success",
          "type": "bool"
        }
      ],
      "name": "StateVerified",
      "type": "event"
    },
    {
      "anonymous": false,
      "inputs": [
        {
          "indexed": true,
          "internalType": "address",
          "name": "from",
          "type": "address"
        },
        {
          "indexed": true,
          "internalType": "address",
          "name": "to",
          "type": "address"
        },
        {
          "indexed": false,
          "internalType": "uint256",
          "name": "value",
          "type": "uint256"
        }
      ],
      "name": "Transfer",
      "type": "event"
    },
    {
      "inputs": [
        {
          "internalType": "address",
          "name": "owner",
          "type": "address"
        },
        {
          "internalType": "address",
          "name": "spender",
          "type": "address"
        }
      ],
      "name": "allowance",
      "outputs": [
        {
          "internalType": "uint256",
          "name": "",
          "type": "uint256"
        }
      ],
      "stateMutability": "view",
      "type": "function"
    },
    {
      "inputs": [
        {
          "internalType": "address",
          "name": "spender",
          "type": "address"
        },
        {
          "internalType": "uint256",
          "name": "value",
          "type": "uint256"
        }
      ],
      "name": "approve",
      "outputs": [
        {
          "internalType": "bool",
          "name": "",
          "type": "bool"
        }
      ],
      "stateMutability": "nonpayable",
      "type": "function"
    },
    {
      "inputs": [
        {
          "internalType": "address",
          "name": "account",
          "type": "address"
        }
      ],
      "name": "balanceOf",
      "outputs": [
        {
          "internalType": "uint256",
          "name": "",
          "type": "uint256"
        }
      ],
      "stateMutability": "view",
      "type": "function"
    },
    {
      "inputs": [],
      "name": "cap",
      "outputs": [
        {
          "internalType": "uint256",
          "name": "",
          "type": "uint256"
        }
      ],
      "stateMutability": "view",
      "type": "function"
    },
    {
      "inputs": [],
      "name": "decimals",
      "outputs": [
        {
          "internalType": "uint8",
          "name": "",
          "type": "uint8"
        }
      ],
      "stateMutability": "view",
      "type": "function"
    },
    {
      "inputs": [
        {
          "internalType": "uint256",
          "name": "state",
          "type": "uint256"
        }
      ],
      "name": "getVerificationStatus",
      "outputs": [
        {
          "internalType": "bool",
          "name": "",
          "type": "bool"
        }
      ],
      "stateMutability": "view",
      "type": "function"
    },
    {
      "inputs": [],
      "name": "isPaused",
      "outputs": [
        {
          "internalType": "bool",
          "name": "",
          "type": "bool"
        }
      ],
      "stateMutability": "view",
      "type": "function"
    },
    {
      "inputs": [],
      "name": "name",
      "outputs": [
        {
          "internalType": "string",
          "name": "",
          "type": "string"
        }
      ],
      "stateMutability": "view",
      "type": "function"
    },
    {
      "inputs": [],
      "name": "owner",
      "outputs": [
        {
          "internalType": "address",
          "name": "",
          "type": "address"
        }
      ],
      "stateMutability": "view",
      "type": "function"
    },
    {
      "inputs": [],
      "name": "pause",
      "outputs": [],
      "stateMutability": "nonpayable",
      "type": "function"
    },
    {
      "inputs": [],
      "name": "renounceOwnership",
      "outputs": [],
      "stateMutability": "nonpayable",
      "type": "function"
    },
    {
      "inputs": [],
      "name": "symbol",
      "outputs": [
        {
          "internalType": "string",
          "name": "",
          "type": "string"
        }
      ],
      "stateMutability": "view",
      "type": "function"
    },
    {
      "inputs": [],
      "name": "totalSupply",
      "outputs": [
        {
          "internalType": "uint256",
          "name": "",
          "type": "uint256"
        }
      ],
      "stateMutability": "view",
      "type": "function"
    },
    {
      "inputs": [
        {
          "internalType": "address",
          "name": "to",
          "type": "address"
        },
        {
          "internalType": "uint256",
          "name": "amount",
          "type": "uint256"
        }
      ],
      "name": "transfer",
      "outputs": [
        {
          "internalType": "bool",
          "name": "",
          "type": "bool"
        }
      ],
      "stateMutability": "nonpayable",
      "type": "function"
    },
    {
      "inputs": [
        {
          "internalType": "address",
          "name": "from",
          "type": "address"
        },
        {
          "internalType": "address",
          "name": "to",
          "type": "address"
        },
        {
          "internalType": "uint256",
          "name": "amount",
          "type": "uint256"
        }
      ],
      "name": "transferFrom",
      "outputs": [
        {
          "internalType": "bool",
          "name": "",
          "type": "bool"
        }
      ],
      "stateMutability": "nonpayable",
      "type": "function"
    },
    {
      "inputs": [
        {
          "internalType": "address",
          "name": "newOwner",
          "type": "address"
        }
      ],
      "name": "transferOwnership",
      "outputs": [],
      "stateMutability": "nonpayable",
      "type": "function"
    },
    {
      "inputs": [],
      "name": "unpause",
      "outputs": [],
      "stateMutability": "nonpayable",
      "type": "function"
    },
    {
      "inputs": [],
      "name": "verifier",
      "outputs": [
        {
          "internalType": "contract Groth16Verifier",
          "name": "",
          "type": "address"
        }
      ],
      "stateMutability": "view",
      "type": "function"
    },
    {
      "inputs": [
        {
          "internalType": "uint256[2]",
          "name": "a",
          "type": "uint256[2]"
        },
        {
          "internalType": "uint256[2][2]",
          "name": "b",
          "type": "uint256[2][2]"
        },
        {
          "internalType": "uint256[2]",
          "name": "c",
          "type": "uint256[2]"
        },
        {
          "internalType": "uint256[1]",
          "name": "input",
          "type": "uint256[1]"
        }
      ],
      "name": "verifyState",
      "outputs": [
        {
          "internalType": "bool",
          "name": "",
          "type": "bool"
        }
      ],
      "stateMutability": "nonpayable",
      "type": "function"
    }
  ],
  "bytecode": "0x60c06040523480156200001157600080fd5b506040516200145b3803806200145b833981016040819052620000349162000364565b81604051806040016040528060058152602001642a37b5b2b760d91b815250604051806040016040528060038152602001622a25a760e91b815250816003908162000080919062000454565b5060046200008f828262000454565b5050506001600160a01b038116620000c257604051631e4fbdf760e01b8152600060048201526024015b60405180910390fd5b620000cd8162000184565b50600083116200010b5760405162461bcd60e51b8152602060048201526008602482015267043617020697320360c41b6044820152606401620000b9565b828411156200015d5760405162461bcd60e51b815260206004820152601a60248201527f496e697469616c20737570706c792065786365656473206361700000000000006044820152606401620000b9565b60a08390526200016e3385620001d6565b6001600160a01b03166080525062000548915050565b600580546001600160a01b038381166001600160a01b0319831681179093556040519116919082907f8be0079c531659141344cd1fd0a4f28419497f9722a3daafe3b4186f6b6457e090600090a35050565b6001600160a01b038216620002025760405163ec442f0560e01b815260006004820152602401620000b9565b620002106000838362000214565b5050565b6001600160a01b0383166200024357806002600082825462000237919062000520565b90915550620002b79050565b6001600160a01b03831660009081526020819052604090205481811015620002985760405163391434e360e21b81526001600160a01b03851660048201526024810182905260448101839052606401620000b9565b6001600160a01b03841660009081526020819052604090209082900390555b6001600160a01b038216620002d557600280548290039055620002f4565b6001600160a01b03821660009081526020819052604090208054820190555b816001600160a01b0316836001600160a01b03167fddf252ad1be2c89b69c2b068fc378daa952ba7f163c4a11628f55a4df523b3ef836040516200033a91815260200190565b60405180910390a3505050565b80516001600160a01b03811681146200035f57600080fd5b919050565b600080600080608085870312156200037b57600080fd5b8451935060208501519250620003946040860162000347565b9150620003a46060860162000347565b905092959194509250565b634e487b7160e01b600052604160045260246000fd5b600181811c90821680620003da57607f821691505b602082108103620003fb57634e487b7160e01b600052602260045260246000fd5b50919050565b601f8211156200044f57600081815260208120601f850160051c810160208610156200042a5750805b601f850160051c820191505b818110156200044b5782815560010162000436565b5050505b505050565b81516001600160401b03811115620004705762000470620003af565b6200048881620004818454620003c5565b8462000401565b602080601f831160018114620004c05760008415620004a75750858301515b600019600386901b1c1916600185901b1785556200044b565b600085815260208120601f198616915b82811015620004f157888601518255948401946001909101908401620004d0565b5085821015620005105787850151600019600388901b60f8161c191681555b5050505050600190811b01905550565b808201808211156200054257634e487b7160e01b600052601160045260246000fd5b92915050565b60805160a051610ee66200057560003960006101ef0152600081816101a401526105970152610ee66000f3fe608060405234801561001057600080fd5b50600436106101215760003560e01c806370a08231116100ad578063a9059cbb11610071578063a9059cbb1461026f578063b187bd2614610282578063dd62ed3e14610294578063e2ae0109146102cd578063f2fde38b146102e057600080fd5b806370a082311461021d578063715018a6146102465780638456cb591461024e5780638da5cb5b1461025657806395d89b411461026757600080fd5b806323b872dd116100f457806323b872dd1461018c5780632b7ac3f31461019f578063313ce567146101de578063355274ea146101ed5780633f4ba83a1461021357600080fd5b806306fdde0314610126578063095ea7b31461014457806318160ddd146101675780631d9425ca14610179575b600080fd5b61012e6102f3565b60405161013b9190610ac5565b60405180910390f35b610157610152366004610b2f565b610385565b604051901515815260200161013b565b6002545b60405190815260200161013b565b610157610187366004610b59565b61039f565b61015761019a366004610b72565b610401565b6101c67f000000000000000000000000000000000000000000000000000000000000000081565b6040516001600160a01b03909116815260200161013b565b6040516012815260200161013b565b7f000000000000000000000000000000000000000000000000000000000000000061016b565b61021b610471565b005b61016b61022b366004610bae565b6001600160a01b031660009081526020819052604090205490565b61021b610488565b61021b61049c565b6005546001600160a01b03166101c6565b61012e6104b9565b61015761027d366004610b2f565b6104c8565b600554600160a01b900460ff16610157565b61016b6102a2366004610bc9565b6001600160a01b03918216600090815260016020908152604080832093909416825291909152205490565b6101576102db366004610cae565b610536565b61021b6102ee366004610bae565b6106f2565b60606003805461030290610d8c565b80601f016020809104026020016040519081016040528092919081815260200182805461032e90610d8c565b801561037b5780601f106103505761010080835404028352916020019161037b565b820191906000526020600020905b81548152906001019060200180831161035e57829003601f168201915b5050505050905090565b600033610393818585610730565b60019150505b92915050565b60008082116103eb5760405162461bcd60e51b8152602060048201526013602482015272496e76616c69642073746174652076616c756560681b60448201526064015b60405180910390fd5b5060009081526006602052604090205460ff1690565b600554600090600160a01b900460ff161561045e5760405162461bcd60e51b815260206004820152601b60248201527f546f6b656e207472616e73666572207768696c6520706175736564000000000060448201526064016103e2565b610469848484610742565b949350505050565b610479610766565b6005805460ff60a01b19169055565b610490610766565b61049a6000610793565b565b6104a4610766565b6005805460ff60a01b1916600160a01b179055565b60606004805461030290610d8c565b600554600090600160a01b900460ff16156105255760405162461bcd60e51b815260206004820152601b60248201527f546f6b656e207472616e73666572207768696c6520706175736564000000000060448201526064016103e2565b61052f83836107e5565b9392505050565b805160009061057d5760405162461bcd60e51b8152602060048201526013602482015272496e76616c696420696e70757420737461746560681b60448201526064016103e2565b6040516343753b4d60e01b81526000906001600160a01b037f000000000000000000000000000000000000000000000000000000000000000016906343753b4d906105d2908990899089908990600401610de9565b602060405180830381865afa1580156105ef573d6000803e3d6000fd5b505050506040513d601f19601f820116820180604052508101906106139190610e6d565b9050806106525760405162461bcd60e51b815260206004820152600d60248201526c24b73b30b634b210383937b7b360991b60448201526064016103e2565b82516000908152600660205260408120805460ff19166001179055839060200201517fca43e04a71afe1d8c886d3f7422ebbfb58e1952341dad2e3cb7d72a6e146305b60016040516106a8911515815260200190565b60405180910390a28251604051600181527f9348b7f3c9648411f34fbe2eea3e48d1cc5be6f5008f172cc3fcbbbf99dc8f1c9060200160405180910390a250600195945050505050565b6106fa610766565b6001600160a01b03811661072457604051631e4fbdf760e01b8152600060048201526024016103e2565b61072d81610793565b50565b61073d83838360016107f3565b505050565b6000336107508582856108c9565b61075b858585610941565b506001949350505050565b6005546001600160a01b0316331461049a5760405163118cdaa760e01b81523360048201526024016103e2565b600580546001600160a01b038381166001600160a01b0319831681179093556040519116919082907f8be0079c531659141344cd1fd0a4f28419497f9722a3daafe3b4186f6b6457e090600090a35050565b600033610393818585610941565b6001600160a01b03841661081d5760405163e602df0560e01b8152600060048201526024016103e2565b6001600160a01b03831661084757604051634a1406b160e11b8152600060048201526024016103e2565b6001600160a01b03808516600090815260016020908152604080832093871683529290522082905580156108c357826001600160a01b0316846001600160a01b03167f8c5be1e5ebec7d5bd14f71427d1e84f3dd0314c0f7b2291e5b200ac8c7c3b925846040516108ba91815260200190565b60405180910390a35b50505050565b6001600160a01b0383811660009081526001602090815260408083209386168352929052205460001981146108c3578181101561093257604051637dc7a0d960e11b81526001600160a01b038416600482015260248101829052604481018390526064016103e2565b6108c3848484840360006107f3565b6001600160a01b03831661096b57604051634b637e8f60e11b8152600060048201526024016103e2565b6001600160a01b0382166109955760405163ec442f0560e01b8152600060048201526024016103e2565b61073d8383836001600160a01b0383166109c65780600260008282546109bb9190610e8f565b90915550610a389050565b6001600160a01b03831660009081526020819052604090205481811015610a195760405163391434e360e21b81526001600160a01b038516600482015260248101829052604481018390526064016103e2565b6001600160a01b03841660009081526020819052604090209082900390555b6001600160a01b038216610a5457600280548290039055610a73565b6001600160a01b03821660009081526020819052604090208054820190555b816001600160a01b0316836001600160a01b03167fddf252ad1be2c89b69c2b068fc378daa952ba7f163c4a11628f55a4df523b3ef83604051610ab891815260200190565b60405180910390a3505050565b600060208083528351808285015260005b81811015610af257858101830151858201604001528201610ad6565b506000604082860101526040601f19601f8301168501019250505092915050565b80356001600160a01b0381168114610b2a57600080fd5b919050565b60008060408385031215610b4257600080fd5b610b4b83610b13565b946020939093013593505050565b600060208284031215610b6b57600080fd5b5035919050565b600080600060608486031215610b8757600080fd5b610b9084610b13565b9250610b9e60208501610b13565b9150604084013590509250925092565b600060208284031215610bc057600080fd5b61052f82610b13565b60008060408385031215610bdc57600080fd5b610be583610b13565b9150610bf360208401610b13565b90509250929050565b634e487b7160e01b600052604160045260246000fd5b6040805190810167ffffffffffffffff81118282101715610c3557610c35610bfc565b60405290565b6040516020810167ffffffffffffffff81118282101715610c3557610c35610bfc565b600082601f830112610c6f57600080fd5b610c77610c12565b806040840185811115610c8957600080fd5b845b81811015610ca3578035845260209384019301610c8b565b509095945050505050565b600080600080610120808688031215610cc657600080fd5b610cd08787610c5e565b9450604087605f880112610ce357600080fd5b610ceb610c12565b8060c089018a811115610cfd57600080fd5b838a015b81811015610d2257610d138c82610c5e565b84526020909301928401610d01565b50819750610d308b82610c5e565b9650505050508661011f870112610d4657600080fd5b610d4e610c3b565b908601908088831115610d6057600080fd5b61010088015b83811015610d7e578035835260209283019201610d66565b509598949750929550505050565b600181811c90821680610da057607f821691505b602082108103610dc057634e487b7160e01b600052602260045260246000fd5b50919050565b8060005b60028110156108c3578151845260209384019390910190600101610dca565b6101208101610df88287610dc6565b60408083018660005b6002811015610e2857610e15838351610dc6565b9183019160209190910190600101610e01565b50505050610e3960c0830185610dc6565b61010082018360005b6001811015610e61578151835260209283019290910190600101610e42565b50505095945050505050565b600060208284031215610e7f57600080fd5b8151801515811461052f57600080fd5b8082018082111561039957634e487b7160e01b600052601160045260246000fdfea2646970667358221220720c7923b6ff08e816e03f965e25c6698191326afc70c451fb4d4752c05d18b464736f6c63430008140033",
  "linkReferences": {},
  "deployedLinkReferences": {}
}